S0200000416374697669646164204578706572696D656E74616C20312E737265631C
S11300000C9434000C943E000C943E000C943E007E
S11300100C943E000C943E000C943E000C943E0064
S11300200C943E000C943E000C943E000C943E0054
S11300300C943E000C943E000C943E000C943E0044
S11300400C943E000C943E000C943E000C943E0034
S11300500C943E000C943E000C943E000C943E0024
S11300600C943E000C943E0011241FBECFEFD8E048
S1130070DEBFCDBF0E9497000C941F020C940000B9
S113008081EF84B98FEF87B915B818B8089518B8F7
S11300900895CF93DF93EC010E944700C03D87E0B1
S11300A0D807E1F044F4C43F81E0D80761F0C83ECA
S11300B0D34069F039C0C03787E1D807C9F0C03EE2
S11300C0DE4219F131C088B1816088B92DC088B190
S11300D0816088B988B1826088B926C088B181609E
S11300E088B988B1826088B988B1846088B91CC035
S11300F088B1816088B988B1826088B988B1846028
S113010088B988B1886088B90FC088B1816088B91E
S113011088B1826088B988B1846088B988B1886000
S113012088B988B1806188B9DF91CF910895CF9360
S1130130DF93CDB7DEB728970FB6F894DEBF0FBEB6
S1130140CDBF0E94400021E030E03E832D83EE24A9
S1130150E394F12C81E090E09C838B8301E010E038
S11301603A83298398878F83C12CD12C0F2EF4EFE7
S11301702F2E33243394F02D0F2EF4EF4F2E5524CD
S11301805394F02DA12CB12CC2010E94490083B1DB
S1130190827090E021E0009709F420E0822E912CF7
S11301A0009741F02F813885232B21F021E030E0A6
S11301B03A832983892BA1F58F819885892B81F531
S11301C029813A81232B61F131E03983C114D104AF
S11301D009F019829981892F90E09A838983CD2827
S11301E051F485B1816085B9C980DA801A82198297
S11301F0A12CB12C15C085B18E7F85B90E94470012
S1130200C980DA801A8219820F2EF4EF2F2E33243C
S11302103394F02D0F2EF4EF4F2E55245394F02DDC
S113022093B121E0892F847092FF20E0622E712C1B
S1130230882339F00115110521F021E030E03C83D9
S11302402B83811145C0012B09F042C08B819C8115
S1130250892BF1F1C114D104B1F590EE49169EE257
S11302605906A0F524EF421621E0520689F038EE33
S1130270431633E0530699F080ED481687E058069C
S1130280A9F40F2EF0E74F2EF7E15F2EF02D14C0E6
S11302900F2EF8EE4F2EF3E05F2EF02D0DC00F2E33
S11302A0F0ED4F2EF7E05F2EF02D06C00F2EF0EE8E
S11302B04F2EFEE25F2EF02DC2010E944900120172
S11302C01C821B8205C01C821B8202C01C821B82F2
S11302D093B101E0892F887093FF00E010E0882338
S11302E039F0E114F10421F021E030E03E832D8364
S11302F0811145C0EF2809F042C08D819E81892B70
S1130300F1F1C114D104B1F595EF491691E0590604
S1130310A0F120EE42162EE2520689F030E7431691
S113032037E1530699F080ED481687E05806A9F4A2
S11303300F2EF8EE4F2EF3E05F2EF02D14C00F2E8B
S1130340F0E74F2EF7E15F2EF02D0DC00F2EF0EDEC
S11303504F2EF7E05F2EF02D06C00F2EF4EF4F2E38
S113036055245394F02DC2010E94490012011E82AB
S11303701D8205C01E821D8202C01E821D82C11400
S1130380D10409F451C0A214B304A0F085B18E7F46
S113039085B90E944700C12CD12C0F2EF4EF2F2ECB
S11303A033243394F02D0F2EF4EF4F2E5524539411
S11303B0F02D3AC09FEFA91AB90AC1018A199B0905
S11303C0813727E1920790F4813D37E09307A8F441
S11303D0893E23E09207C0F4853F9140E0F00F2E60
S11303E0F8EE4F2EF3E05F2EF02D1BC00F2EF0EE33
S11303F04F2EFEE25F2EF02D14C00F2EF0E74F2E8D
S1130400F7E15F2EF02D0DC00F2EF0ED4F2EF7E02B
S11304105F2EF02D06C00F2EF4EF4F2E552453946B
S1130420F02DC2010E9449008FE39CE90197F1F786
S113043000C0000098868F8278018301A5CEF894CD
S1050440FFCFE8
S9030000FC
