S0150000457870657269656E63696120342E737265634E
S11300000C9434000C943E000C943E000C943E007E
S11300100C943E000C943E000C943E000C943E0064
S11300200C943E000C943E000C943E000C943E0054
S11300300C943E000C943E000C943E000C943E0044
S11300400C943E000C943E000C943E000C943E0034
S11300500C943E000C943E000C943E000C943E0024
S11300600C943E000C943E0011241FBECFEFD8E048
S1130070DEBFCDBF0E9440000C94FE010C94000032
S1130080CF93DF93CDB7DEB72E970FB6F894DEBFCC
S11300900FBECDBF8FEF84B990E397B98AB9212CF5
S11300A0312C812C912C41E050E05A8749871A82E7
S11300B0198258874F8321E030E05E834D8381E0CD
S11300C090E0E1E0F0E05C834B8361E070E0A12C20
S11300D0B12C0F2EF8E94F2EFAE35F2EF02D46B126
S11300E051E040FB662460F8712C40FF50E0C52EBF
S11300F0D12C6114710469F06115710551F04BB193
S11301004D7F4BB94BB14B7F4BB941E050E05C8321
S11301104B83672861F4672B51F44B815C81452B39
S113012031F041E034261C821B82412C512C46B113
S113013051E0642F627041FF50E0052F10E061111F
S11301400AC0EF2B89F45AE0451A510841E050E007
S11301505E874D8711C01E861D860F2EF8E94F2E2F
S1130160FAE35F2EF02D08C01E861D860F2EF8E9D7
S11301704F2EFAE35F2EF02D46B161E0542F5470F8
S113018042FF60E0E62EF12C009731F0552321F078
S113019061E070E07E836D83511109C0892B51F4B5
S11301A04D815E81452B49F4E1E0F0E00CC0E0E0D4
S11301B0F0E009C0E0E0F0E006C0E1E0F0E01E821B
S11301C01D82A12CB12C86B141E0982F987083FF39
S11301D040E050E02115310531F0992321F061E030
S11301E070E078876F83911107C0232B41F48F81CE
S11301F09885892B39F40EC01A8219820BC01A8291
S1130200198208C021E030E03A83298318861F82CE
S1130210A12CB12C332009F46AC04114510409F40F
S113022066C038E943163AE3530608F060C0920109
S1130230369527953695279536952795A5ECB0E202
S11302400E94EF015C01B694A794B694A794B69467
S1130250A794B694A7949201329522952F702327E0
S11302603F702327A7E4B3E00E94EF01969587959A
S113027096958795969587959C878B879501ADEC88
S1130280BCEC0E94EF019695879596958795969577
S113029087959C01220F331F880F991F880F991F80
S11302A0880F991F820F931FB501681B790BCB012F
S11302B021E069857A85672B09F020E030E06985C3
S11302C07A85672B51F49BB19B7F9BB985B98BB120
S11302D082608BB93A8729870AC08BB18D7F8BB92D
S11302E07B8575B98BB184608BB93A872987A11452
S11302F0B104A1F48BB18D7F8BB98BB18B7F8BB99A
S1130300222423940F2EF0E18F2EF7E29F2EF02D5E
S11303100F2EF8E9AF2EFAE3BF2EF02D18141904AE
S113032024F48AE0881A910801C0212C311001C0FC
S1130330212C332021F085B1806285B903C085B1B9
S11303408F7D85B9332031F0222021F088B180617E
S113035088B903C088B18F7E88B9311032C08BB19F
S113036088608BB98BB18B7F8BB98BB18D7F8BB947
S11303702D853E85232B11F081E085B9309711F04E
S113038082E085B969817A81672B11F083E085B9B0
S113039091E02D853E85232B09F090E081E0EF2B41
S11303A009F080E0892391E069817A81672B09F063
S11303B090E0882349F0992339F08BB1877F8BB97A
S11303C003C08BB1877F8BB98FE39CE90197F1F769
S11303D000C00000B6019A01C701F80180CEA29FB7
S11303E0B001B39FC001A39F700D811D1124911D05
S11303F0B29F700D811D1124911D0895F894FFCFB3
S9030000FC
